:0300000002056690
:10000300BF0900400CBF0D02D32240FDBF20028078
:03001300F7C3220E
:0D001600E4FE7F01120E0920A4FDC2A0220D
:03002300020EDBEF
:10002600EBFDEAFCE9F87BFFD083D0828581F0E422
:10003600C0E0C0E0C0E0AE81C082C08385F08275BA
:10004600F000C2D58009D0E0FDD0E0FCD0E0F81287
:10005600036CFFC3E8C0E0ECC0E0EDC0E0EF605F1A
:1000660030D5030200E0B4250D74FF312BD37400A4
:100076003121D2D580D012030780CBFF313520F74E
:10008600237009BF0013D2F3888280BAC0F075F0DE
:100096000AA42FD0F020F706FFEF31218002312B82
:1000A600888280A23138B4FFE3EF80F2E4120307BE
:1000B600D33148800DEF24D0B40A0040BE014CBBBA
:1000C600FFEAE58124FDF581D082D08324FCF58109
:1000D600D0E0C083C082FF7E0022A882FF90031C6E
:1000E600E493601F6FA36006A350F5A380F293FF0D
:1000F600400642F0888280C5A3E4938F83F582C2CE
:10010600D1E47340B0D3A380D7C2F351F68882D02E
:10011600E0FDD0E0FCD0E0F8020045C380083138AD
:10012600B4FF027401D3CEC8CE500118F6800BC3BB
:100136008001D3CEC8CE500118E6500108CEC8CEF5
:1001460022C3CE1414C8CE065002161608D380EA6F
:10015600E620F70431218002312B18188882014CE1
:10016600E9C0E0E8F9E7F819E7FC19E7FD19E9C085
:10017600E0E4120364EE24FEF9E7C9D0E0C91203F5
:1001860064E9F8D0E0F92113E6FF1818313524FFA9
:100196004001E4F58320F108EFC0E051F6D0E0FF1E
:1001A6007107210F7F2580E4D2D1C2F631247582F2
:1001B600027D0430F4048D827D08E618F583540F21
:1001C600C0E0E58354F0C4C0E01582E58270EB75AB
:1001D60082008000D0E07006ED60031D80F6C0E06E
:1001E6003138C39D600B4009758300C0830DD5E08F
:1001F600F9E582700430F0010D3135C330F001D3DA
:100206009D5001E4F58330F30251C820F10251F606
:1002160051C8BD0002210FD0E024F6500730D102AC
:1002260024202407243AFF7107DDEC210FC2F6745F
:100236000630F402740B30F00104FD7582088D83DC
:100246003124C0F07115E6FC08E618CC7F0130F4C5
:10025600027F038582F084F6EC54F025F0C4858293
:10026600F084C4CC540FC5F0C425F08582F0842CEC
:1002760008F6DF0FD0E0C5F0C0E0EFD583C47115F6
:100286001821DA08E618FC80D0C2F07D0530F402A9
:100296007D0A75820A80A7E8FD7115E630E717D258
:1002A600D1EDF875820230F402758204C3E6CFE41C
:1002B6009FF618D582F7EDF8A2F572F672D192F094
:1002C60080C930F028E582B40A117F2D20D10E7F37
:1002D6002B20F5097F2030F61480027F307107E568
:1002E60082700A7F7820D1027F581D7107C2F022E2
:1002F600E583600C7F2030F3027F307107D583F4ED
:10030600223147BBFF041204D122EF1203682218E0
:1003160030F4021818226C106200680023012D02C6
:100326002B2020402E80002A01566F02337801AE22
:100336005801B075028F64029D69029D63018E6E3D
:0603460001662501AA007A
:0C034C00ECF608EDF608EEF608EFF622DD
:0C035800ECF709EDF709EEF709EFF722CA
:0403640071806174CF
:04036800719C617AA9
:04036C0071B861748F
:0403700071E3617A5A
:0603740008B800010C2294
:06037A0009B900010A228E
:10038000CD30E11520E00FC083C08288828C83CD00
:0C039000F0D082D08322CDF222CDF622E4
:10039C00CB30E11520E00FC083C08289828A83CBE9
:0C03AC00F0D082D08322CBF322CBF722CA
:1003B800ED30E11320E00EC083C08288828C83E098
:1003C800D082D08322E2226405700EC083C0828866
:0B03D800828C8393D082D08322E62227
:1003E300EB30E11320E00EC083C08289828A83E070
:1003F300D082D08322E3226405700EC083C0828939
:0B040300828A8393D082D08322E722FC
:10040E00740418C8C9C8C5F0C8C0E0E608F709D515
:07041E00F0F918D0E0F9220B
:100425007404C0F018F5F0E709F608D5F0F919D00D
:03043500E0F822CA
:10043800740288F0A8812581F58118E6C0E008E6F5
:03044800C0E022EF
:0E044B00BF30004007BF3902D32240FDC3225C
:10045900E58124FEF9EFF887F0A4FFE7C5F0CEFAAD
:10046900A42EFE500205F0E7C5F0CDFBA42DFD50EA
:100479000205F0E7C5F0CCA42CFC19E7601C88F054
:10048900A42EFEE5F03DFD50010C87F0EAA42DFDF8
:10049900E5F03CFC87F0EBA42CFC19E7600F88F031
:1004A900A42DFDE5F03CFC87F0EAA42CFC19E760DB
:0904B9000588F0A42CFC0204C229
:0F04C20074FCD083D0822581F581C082C0832253
:1004D100EFB40A077F0D1204D17F0A3099FDC2994A
:0304E1008F9922CE
:1004E400E4F5F0FCFDFEFF1203706065CF1200031B
:1004F40040EE12044BCF5045D2F1C0F0942FF8EFE8
:1005040075F00AA4FFE5F0CE75F00AA42EFEE5F01E
:100514003400CD75F00AA42DFDE5F03400CC75F05F
:100524000AA42CFCEF28FFEE3400FEED3400FDECB1
:100534003400FCD0F01203706017CF80B520F111A5
:1005440020F20ED2F2B42D04D2F080E9B42B028052
:10055400E430F00DE4C39FFFE49EFEE49DFDE49CC3
:02056400FC2277
:100566007581DDE4787FF6D8FD900F1AE49370026A
:10057600804EC31392D5C31392D1FFA3E493F8B070
:10058600D5402130D505E4A393F5A0E420D102A3FC
:100596009320D507F608DFF3A380D1F208B800F65A
:1005A60005A080F2E8030303541F2420F9E854074A
:1005B600F8E4D333B80002800333D8FD47F780D878
:1005C600758920758840759852758DE875A0FF026B
:0205D600081EFD
:1005D80031535431200032535431200033535431B5
:1005E800200034535431200031535430200032530A
:1005F80054302000314B2031505A2000324B2032E9
:10060800505A20003141302E35203156302E3520B9
:1006180031442B20314D4320315452305858203129
:100628004720003241302E35203256302E352032C8
:10063800442D20324D4320325452305858203247EE
:1006480020004B20003141302E35203156302E35D8
:100658002031442D20314D432031545230585820F8
:10066800314720003241302E35203256302E352089
:1006780032442B20324D43203254523058582032C5
:10068800472000314B20314C443320314D4E20312E
:10069800505A20315452305858203141302E35208C
:1006A8003156302E3520314F3131203144256C649C
:1006B80020314720314F30302031585420315852A2
:1006C800312000324B20324C443320324D4E203200
:1006D800505A20325452305858203241302E35204A
:1006E8003256302E3520324F3131203244256C6459
:1006F80020324720324F303020325854203258525E
:10070800312000335354302000334B20334C4433D2
:100718002033413130203356343020334F313120AB
:1007280033442D25302E306C7520334720334F301D
:1007380030203358542000334B20334C443320337B
:10074800413430203356343020334F313120334454
:100758002D25302E306C7520334720334F30302014
:10076800335854200034532000334B20334C443347
:10077800203341323030203356343020334F31313A
:100788002033442B25302E306C7520334720334FCF
:100798003030203358542000334B20334C4433201E
:1007A80033413230302033563520334F3131203306
:1007B800442B25302E306C7520334720334F303092
:1007C800203358542000345354302000344B203404
:1007D8004C44332034413130302034563920344FA2
:1007E80031312034482034442B34303634303030E2
:1007F80020344720344F30302034585420003154AE
:1008080052305858203150522000325452305858E3
:06081800203250522000C6
:10081E00C292C291C290D2B4C2A0C287758700752F
:10082E008840758DFD758920759852D2AFC2ACD2B5
:10083E00BCC2BA7B057A0579D81200267B057A05EB
:10084E0079DE1200267B057A0579E41200267B05F7
:07085E007A0579EA12002679
:0608650030971A30031762
:10086B007B057A0579F01200267B057A0579F6125D
:0A087B000026120B2380E330B24B7D
:1008850020B2FDE4FE7F02120E097B057A0579F0A0
:100895001200267B057A0579F6120026E4FE7F0113
:1008A500120E091208F9E4FE7F01120E0920B2FDAD
:1008B500120B23D2B4C2907B057A0579D812002693
:0E08C5007B057A0579DE12002680B230809223
:1008D3007B057A0579D81200267B057A0579DE1225
:1008E30000267B057A0579E41200267B057A0579D3
:0608F300EA12002680D786
:0308F90020B23EEC
:1008FC00C2B47B057A0579FC1200267B057A067951
:10090C000412002630940312093B309303120A2F71
:0F091C003095031209C2309603120A9C3097CE11
:10092B00120DB5E4FE7F06120E09120B2380BF22B7
:09093B00E4FE7F01120E09C2B4B2
:0309440030942DBF
:100947007B057A06790C1200267B057A06792B122D
:100957000026E4FE7F01120E09D2A0D2872094FD63
:100967007B057A06794A120026C2A0C28730962DE7
:100977007B057A06794D1200267B057A06796C127B
:100987000026E4FE7F01120E09D2A0D2872096FD31
:100997007B057A06794A120026C2A0C28730B29D2B
:1009A700D2B4D290E4FE7F03120E09C290120E3029
:0B09B70020B2FDE4FE7F03120E0922B7
:0909C200E4FE7F01120E09C2B42B
:0309CB0030952044
:1009CE007B057A06792B120026E4FE7F01120E09B2
:1009DE00D2872095FD7B057A06794A120026C287BA
:0309EE0030932023
:1009F1007B057A06796C120026E4FE7F01120E094E
:100A0100D2872096FD7B057A06794A120026C28795
:030A110030B2B749
:100A1400D2B4D290E4FE7F03120E09C290120E30BB
:0B0A240020B2FDE4FE7F03120E092249
:090A2F00E4FE7F01120E09C2B4BD
:030A3800309320D8
:100A3B007B057A06790C120026E4FE7F01120E0963
:100A4B00D2A02093FD7B057A06794A120026C2A01C
:030A5B00309520B3
:100A5E007B057A06794D120026E4FE7F01120E09FF
:100A6E00D2A02096FD7B057A06794A120026C2A0F6
:030A7E0030B2B7DC
:100A8100D2B4D290E4FE7F03120E09C290120E304E
:0B0A910020B2FDE4FE7F03120E0922DC
:090A9C00E4FE7F01120E09C2B450
:030AA50030962D5B
:100AA8007B057A06794D1200267B057A06796C1249
:100AB8000026E4FE7F01120E09D2A0D2872096FDFF
:100AC8007B057A06794A120026C2A0C28730942D87
:100AD8007B057A06790C1200267B057A06792B129B
:100AE8000026E4FE7F01120E09D2A0D2872094FDD1
:100AF8007B057A06794A120026C2A0C28730B29DC9
:100B0800D2B4D290E4FE7F03120E09C290120E30C6
:0B0B180020B2FDE4FE7F03120E092254
:0B0B2300E4FE7F05120E09C2B4D203ED
:060B2E00E51245137009F9
:100B3400E4FE7F0A120E09804BE5131513700215AB
:100B440012E513232354FC242DF8C0001204381298
:100B5400040E74FFFCFDFEFF120459D00112035869
:100B6400E513232354FC2485F8C00012043812042E
:100B74000E74FFFFFEFCFD120459D001120358123B
:0F0B84000C5280A6E512B51406E5136515604BFB
:100B9300E513232354FC242DF8C000120438120457
:100BA3000E74FFFCFDFEFF120459D001120358E539
:100BB30013232354FC2485F8C00012043812040EB6
:100BC30074FFFFFEFCFD120459D001120358120CEE
:100BD300520513E51370AE051280AAE512B514622F
:050BE300E513B5155DEE
:030BE800120DB536
:060BEB00E512451370093C
:100BF100E4FE7F0A120E0980E4E513151370021555
:100C010012E513232354FC242DF8C00012043812DA
:100C1100040E74FFFCFDFEFF120459D001120358AB
:100C2100E513232354FC2485F8C000120438120470
:100C31000E74FFFFFEFCFD120459D001120358127D
:100C41000C5280A6E4FE7F05120E09D2B412081ED2
:010C51002280
:100C5200E513232354FC242DF812043812040E7BCE
:100C6200057A06798B12002674FC2581F581E5133D
:100C7200232354FC2485F812043812040E7B057ACF
:100C82000679CB12002674FC2581F581D2A0D28789
:070C9200120016120D9D2255
:100C99007B057A07790B120026E4FE7F01120E0903
:100CA90079081204381204257B057A077911120094
:100CB9002674FC2581F581120DAA7B057A0579E454
:040CC90012002622CD
:100CCD007B057A07790B120026E4FE7F01120E09CF
:100CDD0079081204381204257B057A07793F120032
:100CED002674FC2581F581E4FE7F01120E09308505
:010CFD000BEB
:100CFE007B057A07796D12002680F27B057A0579DD
:050D0E00E412002622A2
:100D13007B057A07790B120026E4FE7F01120E0988
:100D230079081204381204257B057A0779711200B9
:100D33002674FC2581F581120DAA7B057A0579E4D9
:040D43001200262252
:100D47007B057A07790B120026E4FE7F01120E0954
:100D570079081204381204257B057A0779A0120056
:100D67002674FC2581F5817B057A0779CE1200264A
:100D7700E4FE7F01120E097B057A0779D41200265B
:100D8700120DAA7B057A0579E41200267B057A0500
:060D970079EA1200262299
:0D0D9D00E4FE7F01120E092086FDC28722B0
:0B0DAA00E4FE7F01120E092085FD22EF
:100DB500D2B4D290790C120438120425E4FCFDFE5D
:100DC5007F64120459780812034C120D13790C1222
:100DD5000438120425E4FEFCFD7F3212045978081C
:100DE50012034C120D47790C120438120425E4FE47
:100DF500FCFD7F96120459780812034C120CCDC2E3
:040E0500B4C29022C1
:040E0900EE4F602226
:0D0E0D00EF1F70011EE4FC7D04EC4D60EF52
:0E0E1A007B077AE1DBFEDAFC7516E075170740
:080E2800ED1D70EA1C80E722B9
:100E30007B057A087906120026E4FE7F01120E096E
:100E4000D2A0C299D2ACC201C200E4F511E51133BF
:100E500095E06480B48006E511B40A01D340EEC287
:100E6000AC792C7700D299C2A07B017921E4FA12E7
:100E700004E4E513232354FC242DF812034C7B05D2
:100E80007A087912120026E4FE7F01120E09D28739
:100E9000C299D2ACD201C200E4F511E5113395E05C
:100EA0006480B48006E511B40A01D340EEC2AC7987
:100EB0002C7700D299C2877B017921E4FA1204E4ED
:100EC000E513232354FC2485F812034C0513E51382
:0B0ED000700205128512148513152214
:100EDB00C0E0C0D0C000C001C2ACE599642D600574
:0A0EEB00E599B42B02D20030001884
:030EF500200109D0
:0C0EF800E5112421F8A69905113001092C
:100F0400E5112421F8A6990511C298D2ACD001D0DC
:060F140000D0D0D0E03255
:060F1A00100C000023286A
:010F200000D0
:00000001FF
